:020000040800F2
:100000000050002021020008270200082B020008EF
:100010009D020008A1020008E9020008000000009B
:100020000000000000000000000000003103000894
:100030003503000800000000390300082D110008F6
:100040004D0300084D0300084D0300084D03000850
:100050004D0300084D0300084D0300089D150008DE
:100060004D0300084D0300084D0300084D03000830
:100070004D0300084D0300084D0300084D03000820
:100080004D0300084D0300084D0300084D03000810
:100090004D0300084D0300084D0300084D03000800
:1000A0004D0300084D0300084D0300084D030008F0
:1000B0004D0300084D0300084D0300084D030008E0
:1000C0004D0300084D0300084D0300084D030008D0
:1000D0004D0300084D0300084D0300084D030008C0
:1000E0004D0300084D0300084D0300080000000008
:1000F0000000000000000000000000000000000000
:1001000000000000000000005FF808F100B583B0B7
:1001100000F072FE304B314A1360314A1360314BAC
:10012000314A03E052F8041B43F8041B2F498B4269
:10013000F8D32A4B1A682E4B9A4200D0FEE7284B80
:100140001A682C4B9A42F9D1234B2B4A13602B4A45
:1001500013602B4B02E0002243F8042B294A934200
:10016000F9D3254B1B6813B9244B1B6803B1FEE779
:1001700000F04EFE694601A800F0CEFD224C234B54
:10018000E41AA410002504E0204B53F825309847CA
:100190000135AC42F8DC1E4C1E4BE41AA4100025BD
:1001A00004E01C4B53F8253098470135AC42F8DC8D
:1001B0000099019801F05AF90546174C174BE41ABB
:1001C000A41004E0013C154B53F824309847002C50
:1001D000F8DC284600F072FDBABADECA0000002042
:1001E000BC00002000000020E02F0008C00000201C
:1001F0007856341232547698C0000020A4010020B2
:10020000C0000020A801002078030008780300083F
:1002100078030008780300087803000878030008D2
:1002200008B5FFF773FF00BEFEE71EF0040F0CBF1A
:10023000EFF30880EFF309807146414A10472DE93A
:10024000F04182B004468846124B5E6B9F6B9D6AFC
:100250001B6B13F0020F03D00E4BDB6A002B0CDB81
:100260000D4800F06BFDCDF800803B463246294634
:10027000204600F0D1FD00BEFEE74BF6AB6100F07A
:1002800045FE0028ECD0034B4FF00042DA6202B08A
:10029000BDE8F08100ED00E0482D000800BEFEE75B
:1002A0001EF0040F0CBFEFF30880EFF309807146D6
:1002B000244A10472DE9F04182B004468846084B95
:1002C0005E6B9F6B9D6A074800F038FDCDF800809B
:1002D0003B4632462946204600F09EFD00BEFEE722
:1002E00000ED00E0582D00081EF0040F0CBFEFF3E6
:1002F0000880EFF309807146134A10472DE9F04159
:1003000082B004468846084B5E6B9F6B9D6A074827
:1003100000F014FDCDF800803B46324629462046C9
:1003200000F07AFD00BEFEE700ED00E0642D00085D
:1003300000BEFEE700BEFEE700BEFEE7704700001D
:100340003F020008B5020008FD02000800BEFEE7FB
:10035000E02F000800000020C0000020E02F00086F
:100360000000000000000000C0000020A8010020E4
:08037000000000000000000085
:1003780010B50446431E012B2FD904282DD0082878
:100388002BD0102829D0202827D0402825D08028F5
:1003980023D0B0F5807F20D0B0F5007F1DD0B0F518
:1003A800806F1AD0B0F5006F17D0B0F5805F14D009
:1003B800B0F5005F11D0B0F5804F0ED0B0F5004F0A
:1003C8000BD0B0F5803F08D0B0F5003F05D0B0F5B0
:1003D800802F02D0B0F5002F08D1094A13682340B6
:1003E8005269224207D043B9002005E0E5210548BB
:1003F80000F096FCF1E7002010BD0120FCE700BFEB
:1004080000040140F02A000810B50446030D1B053E
:1004180003B918B9FC21034800F082FC024B5C6167
:1004280010BD00BFF02A00080004014010B50446C2
:10043800022806D8064A136803F038031C431460E0
:1004480010BD40F20311034800F06AFCF2E700BF58
:1004580000200240242B000810B50446102800D0C4
:1004680040B9074B1A6822F010021A601868204336
:10047800186010BD40F22F11024800F051FCF0E75F
:1004880000200240242B0008F8B505460C46494BCD
:1004980098421BD003F58063984217D003F5806318
:1004A800984213D003F5806398420FD003F5806318
:1004B80098420BD003F58063984207D003F5806318
:1004C800984203D0B2213C4800F02AFCE3786BB193
:1004D800042B0BD0282B09D0482B07D0142B05D080
:1004E800102B03D01C2B01D0182B14D12388BBB19F
:1004F800E37803F00F06304613F0100F06D0A37808
:10050800013BDBB2022B10D8A078304323785BB3D1
:100518002E68002310E0B321274800F001FCE5E72E
:10052800B421254800F0FCFBE2E7BB21224800F09B
:10053800F7FBE9E76A610133072B14D801229A40D7
:10054800218832EA0101F6D199000F278F4026EA67
:10055800070600FA01F10E43E1782829EAD0482974
:10056800E9D12A61E7E72E602388FF2B20D96E683E
:10057800002302E06A6115E00133072B17D803F165
:10058800080101228A40218832EA0101F4D1990048
:100598000F278F4026EA070600FA01F10E43E1789B
:1005A8002829E7D0E1784829E6D12A61E4E76E6096
:1005B800F8BD00BF00080140582B000838B50446B4
:1005C8000D46144B98421CD003F58063984218D00E
:1005D80003F58063984214D003F58063984210D0E5
:1005E80003F5806398420CD003F58063984208D0E5
:1005F80003F58063984204D040F26911064800F080
:100608008FFB0DB1256138BD4FF4B571024800F07C
:1006180087FBF7E700080140582B000838B5044667
:100628000D46144B98421CD003F58063984218D0AD
:1006380003F58063984214D003F58063984210D084
:1006480003F5806398420CD003F58063984208D084
:1006580003F58063984204D040F27911064800F00F
:100668005FFB0DB1656138BD4FF4BD71024800F004
:1006780057FBF7E700080140582B00080D4B1A6894
:1006880042F001021A6059680B4A0A405A601A6817
:1006980022F0847222F480321A601A6822F48022CE
:1006A8001A605A6822F4FE025A604FF41F029A60D8
:1006B800704700BF001002400000FFF810B5044664
:1006C80028B1B0F5803F02D0B0F5802F0FD1114B83
:1006D8001A6822F480321A601A6822F480221A609A
:1006E800B4F5803F09D0B4F5802F0CD010BD40F28E
:1006F8001111094800F014FBE9E7064A136843F4AE
:1007080080331360F2E7034A136843F4A0231360AD
:10071800ECE700BF001002408C2B000838B50D46EE
:10072800044628B1B0F5803F02D0B0F5403F32D141
:100738004DB3B5F5802F26D0B5F5002F23D0B5F5EC
:10074800402F20D0B5F5801F1DD0B5F5A01F1AD0B9
:10075800B5F5C01F17D0B5F5E01F14D0B5F5001FCB
:1007680011D0B5F5101F0ED0B5F5201F0BD0B5F57B
:10077800301F08D0B5F5401F05D0B5F5501F02D081
:10078800B5F5601F0DD10A4A536823F47C132C4336
:100798001C43546038BD40F27F11064800F0C0FA8F
:1007A800C6E74FF4C071034800F0BAFAEBE700BFA0
:1007B800001002408C2B000810B50446012802D80E
:1007C800044B1C6010BD4FF4CA71034800F0A8FA2E
:1007D800F6E700BF600042428C2B000810B50446C3
:1007E800022806D8064A536823F003031C435460C2
:1007F80010BD4FF40E71034800F092FAF2E700BF03
:10080800001002408C2B0008024B586800F00C00C6
:10081800704700BF0010024010B5044678B1802828
:100828000DD090280BD0A02809D0B02807D0C02818
:1008380005D0D02803D0E02801D0F02806D1064AF8
:10084800536823F0F0031C43546010BD4FF4197132
:10085800024800F065FAF2E7001002408C2B00080D
:1008680010B5044658B1B0F5806F08D0B0F5A06F48
:1008780005D0B0F5C06F02D0B0F5E06F06D1064ADA
:10088800536823F4E0631C43546010BD40F27E219A
:10089800024800F045FAF2E7001002408C2B0008ED
:1008A80010B5044658B1B0F5806F08D0B0F5A06F08
:1008B80005D0B0F5C06F02D0B0F5E06F07D1074B97
:1008C800586820F4605040EAC400586010BD4FF4E6
:1008D8002671034800F024FAF1E700BF0010024037
:1008E8008C2B000838B504460D460E4B034003B95F
:1008F80020B940F24A410C4800F012FA012D05D8FF
:1009080055B10A4A93691C43946138BD40F24B4182
:10091800054800F005FAF3E7044A936923EA04045A
:100928009461F2E70200C0FF8C2B0008001002401F
:1009380038B504460D460E4B184200D120B940F296
:1009480069410C4800F0ECF9012D05D855B10A4A67
:10095800D3691C43D46138BD40F26A41054800F0B0
:10096800DFF9F3E7044AD36923EA0404D461F2E720
:10097800003601818C2B00080010024010B5044697
:10098800012802D8044B1C6010BD40F2E541034821
:1009980000F0C6F9F6E700BF4C0042428C2B000875
:1009A80010B50446212813D0312811D039280FD08A
:1009B80041280DD061280BD07A2809D07B2807D090
:1009C8007C2805D07D2803D07E2801D07F280FD130
:1009D8006309012B12D0022B13D00C4B5B6A04F075
:1009E8001F0423FA04F414F0010F0DD0012010BDE8
:1009F80040F23451064800F093F9E9E7034B1B68CD
:100A0800EDE7024B1B6AEAE70020F0E7001002401E
:100A18008C2B000800B583B0002301933120FFF729
:100A2800BFFF019B01330193019BB3F5A06F01D078
:100A38000028F3D03120FFF7B3FF18B1012003B02D
:100A48005DF804FB0020FAE72DE9F04105460C4665
:100A58004D4B98420BD0A3F57843984207D003F545
:100A68008063984203D0A321484800F059F92388AD
:100A780043B1B3F5806F05D0B3F5004F02D0B3F59D
:100A8800404F53D16388B3F5827F01D0002B52D1F8
:100A9800A388B3F5006F01D0002B51D1E3880BB1C7
:100AA800022B52D12389012B54D86389B3F5007FD7
:100AB80001D0002B53D1A3896BB1082B0BD0102B7D
:100AC80009D0182B07D0202B05D0282B03D0302B8A
:100AD80001D0382B48D1E3890BB1802B49D1238A27
:100AE800002B4BD02B8803F44152B4F800E0B4F843
:100AF8000280B4F804C0E78826896089A189E3895F
:100B08004EEA080E4CEA0E0C47EA0C073E43304307
:100B180001430B4313432B80AB8B9BB223F400633D
:100B28009BB2AB83238A2B82BDE8F081A6211748AC
:100B380000F0F6F8A6E7A721144800F0F1F8A7E7B7
:100B4800A821124800F0ECF8A8E7A9210F4800F006
:100B5800E7F8A7E7AA210D4800F0E2F8A5E7AB21DE
:100B68000A4800F0DDF8A6E7AC21084800F0D8F8FC
:100B7800B1E7AD21054800F0D3F8B0E7AE2103484E
:100B880000F0CEF8AEE700BF00300140BC2B0008F3
:100B980038B504460D46124B98420CD0A3F578435D
:100BA800984208D003F58063984204D040F2B71108
:100BB8000C4800F0B5F8012D05D855B1238843F04D
:100BC8004003238038BD4FF4DC71064800F0A8F8D4
:100BD800F3E723889BB223F040039BB22380F1E71D
:100BE80000300140BC2B000838B504460D46094BBF
:100BF80098420CD0A3F57843984208D003F5806357
:100C0800984204D040F23A21034800F089F8A581BF
:100C180038BD00BF00300140BC2B000810B50446A9
:100C2800084B98420CD0A3F57843984208D003F5B6
:100C38008063984204D040F24A21034800F070F8DB
:100C4800A08910BD00300140BC2B000838B505460E
:100C58000C46164B98420CD0A3F57843984208D01E
:100C680003F58063984204D040F21631104800F032
:100C780057F8802C0DD0402C0BD0202C09D0102CEC
:100C880007D0082C05D0042C03D0022C01D0012C4D
:100C980004D12B891C4207D0012038BD40F21731FE
:100CA800034800F03DF8F4E70020F6E70030014083
:100CB800BC2B0008FEE7000008B5034800F054F814
:100CC8000120FFF7F7FF00BFEC2B000808B503462B
:100CD8000C4A12685AB10B4A1068033323F0030315
:100CE8000344094A934206D8064A136008BD054AD8
:100CF80006491160EFE701F067FA0C2303604FF033
:100D0800FF30F3E7C4000020004C0020A8010020B9
:100D180001230360014B0B60704700BF04000020F3
:100D280008B50A460146024800F004F8FFF7C4FF78
:100D3800002C00080FB400B583B004AB53F8042BA3
:100D480001938021074801F07DFB002804DC03B0F3
:100D58005DF804EB04B070470146024800F044F81F
:100D6800F5E700BFCC00002010B5044601F01EFBDB
:100D78000146204600F038F80121024800F034F816
:100D880010BD00BFE42E00082DE9F04385B00446ED
:100D98000F46435633BB042528462146ABBE0446BE
:100DA800384605B0BDE8F08304AA1344002203F8CE
:100DB800102C4FF00408E94640464946ABBE804631
:100DC800761B002EECD03546102E28BF10250023A8
:100DD800AB42E9D214F9011B04AA1A4402F8101C08
:100DE8000133F5E70E46ECE708B5FFF7CDFF08BD80
:100DF80008B500F0FDF8024A024B9A6008BD00BF32
:100E08000000000800ED00E008B500F019F908BD81
:100E1800F8B504460D4617461E462748FFF78AFFD1
:100E280021682648FFF786FF61682548FFF782FF9B
:100E3800A1682448FFF77EFFE1682348FFF77AFF9F
:100E480021692248FFF776FF61692148FFF772FFA1
:100E5800A1692048FFF76EFFE1691F48FFF76AFFA5
:100E68001E48FFF767FF29461D48FFF763FF1D4C23
:100E7800E16A1D48FFF75EFF216B1C48FFF75AFF28
:100E8800E16B1B48FFF756FF15F0800F0AD115F4E8
:100E9800004F0CD11748FFF74DFF06991648FFF78A
:100EA80049FFF8BD39461548FFF744FFEFE73146DB
:100EB8001348FFF73FFFEDE72C2C00083C2C0008F7
:100EC8004C2C00085C2C00086C2C00087C2C0008BA
:100ED8008C2C00089C2C0008AC2C0008BC2C0008AA
:100EE800C82C000800ED00E0D82C0008E82C000809
:100EF800F82C0008282D0008302D0008082D0008BF
:100F0800182D000883691A888A4201D0002070478A
:100F18000268033A012A01D900207047023383612D
:100F28000120704782B00023019300932C4A136874
:100F380043F4803313602A4B1B6803F40033009397
:100F4800019B01330193009B1BB9019BB3F5A06F73
:100F5800F1D1234B1B6813F4003F06D00123009303
:100F6800009B012B04D002B0704700230093F7E7E1
:100F78001C4B1A6842F010021A601A6822F0030229
:100F88001A601A6842F002021A60A3F580535A6880
:100F98005A605A685A605A6842F480625A605A68BD
:100FA80022F47C125A605A6842F4E8125A601A68AD
:100FB80042F080721A600A4B1B6813F0007FFAD067
:100FC800074B5A6822F003025A605A6842F002023C
:100FD8005A60034B5B6803F00C03082BF9D1C2E796
:100FE800001002400020024008B5FFF79BFF08BD33
:100FF80008B5104B1A6842F001021A6059680E4A87
:101008000A405A601A6822F0847222F480321A6008
:101018001A6822F480221A605A6822F4FE025A6082
:101028004FF41F029A60FFF7DFFF044B4FF0006296
:101038009A6008BD001002400000FFF800ED00E0D3
:101048001F4B5B6803F00C03042B15D0082B17D03B
:101058001BB11C4B1C4A1A6002E01A4B1A4A1A6050
:10106800174B5B68C3F30313184AD35CDAB215490C
:101078000B68D3400B607047124B134A1A60EFE7B6
:101088000F4A53685268C3F38343023312F4803F14
:1010980005D10F4A02FB03F30A4A1360E0E7084A46
:1010A800526812F4003F05D0094A02FB03F3054ACF
:1010B8001360D5E7044A02FB03F3024A1360CFE743
:1010C800001002401C00002000127A000C000020D2
:1010D80000093D000A4B1B680A4AA2FB03239B0C2C
:1010E800013BB3F1807FF5D2074A5360074BF021EB
:1010F80083F823100023936007231360704700BF11
:101108001C00002083DE1B4310E000E000ED00E03F
:10111800034B1B681BB1024A1368013B13607047FD
:101128004C01002008B5FFF7F3FF08BD421E48B187
:10113800054B4FF47A711960034B1B68002BFBD1E8
:101148001046F3E7704700BF4C01002008B5102196
:101158000148FFF763FA08BD0008014008B51021EF
:101168000148FFF72BFA08BD0008014008B5FFF752
:1011780085FA4FF48030FFF7A1FAFFF74BFC0128FE
:1011880000D008BD1020FFF767F90220FFF74EF9DD
:101198000020FFF741FB0020FFF782FB4FF480603F
:1011A800FFF75EFB4FF4E0114FF48030FFF7B6FA1B
:1011B8000120FFF701FB3920FFF7F2FB0028FAD0E6
:1011C8000220FFF70BFBFFF71FFB0828FBD10120CC
:1011D800FFF7D4FB01210846FFF7AAFB01213D20B8
:1011E800FFF780FBCDE7000030B5ADF5037DA6E045
:1011F8006420FFF79BFF4FF4427000F0FFF91428BA
:1012080014BF002001205B4B18700028F0D141E08A
:10121800002B3FDD0122002104A8184400F0DAFF6A
:1012280004A95548FFF786FD544904A801F0C6F8FB
:1012380028B304AA524943A801F098F843A801F03A
:10124800B5F882B243A9002000F0DEFC43A94D485E
:10125800FFF770FDFA22002104A800F0BBFFFA2274
:10126800002143A800F0B6FFFA2204A9002000F0EC
:1012780061FD034670B1642CCADD0024C8E7651C13
:101288002246414943A801F071F82C46D6E73F4869
:10129800FFF750FD4FF4427000F0B0F9172814BF63
:1012A80000200120334B187000283FD003AA0421E6
:1012B800002000F0B1FD0DF10A020521002000F028
:1012C800ABFD9DF80F30BDF80A20019200939DF800
:1012D8000E309DF80D209DF80C102D48FFF72AFDC3
:1012E8002C4D284601F062F882B22946002000F011
:1012F8008BFC0446284601F059F800B2844214BF1A
:1013080000200120244B18700028C0D02348FFF784
:1013180011FDFA242246002104A800F069FF2246A4
:10132800002143A800F064FF00249DE71C48FFF754
:1013380001FD002000F020FC002000F0FBFA002353
:1013480041F288320121184600F030FBC0B2124B3E
:10135800187058B900F0DAFBC0B20F4B18700128AA
:101368003FF449AF0F48FFF7E5FCE2E70E48FFF707
:10137800E1FCDEE798010020E02D0008F02D0008D0
:10138800F82D0008142E0008042E0008182E000856
:101398007C2D0008A02D000894010020AC2D000829
:1013A800302E00086C2E0008802E000830B587B05B
:1013B8000023ADF80430ADF80830ADF80A30ADF8C8
:1013C8000C304FF40072ADF80E20ADF81230ADF8C5
:1013D80010304FF48273ADF806300723ADF814309F
:1013E80001214FF48050FFF77DFA1D4C01A92046DA
:1013F800FFF72AFB01212046FFF7CAFBA023ADF81F
:10140800003018238DF8033003238DF80230A4F53B
:10141800205469462046FFF737F84023ADF80030DE
:1014280048238DF8033069462046FFF72DF810252C
:10143800ADF800508DF8035069462046FFF724F8B0
:101448000223ADF800308DF8035069462046FFF7B7
:101458001BF801210420FFF745FA07B030BD00BF93
:101468000030014000B589B0FFF780FEFFF732FE7B
:101478003848FFF75FFCFFF799FF3748FFF75AFC3A
:10148800364C02212046FFF7C9F80520FFF74EFE2B
:1014980002212046FFF792F84620FFF747FE304921
:1014A800304800F07BFD3049304800F089FD304875
:1014B800FFF740FC2F48014600F0D6FD2E48FFF705
:1014C80039FC00230293049305930693CDF81B304F
:1014D80008238DF80930DC238DF80A30AB238DF80A
:1014E8000B30CD238DF80C30EF238DF80D30C02153
:1014F8008DF80E10A8228DF80F2078238DF8113062
:10150800FF238DF812308DF813308DF814308DF8D4
:1015180016108DF81720FA238DF8193002A800F05C
:10152800F7FD1648FFF706FC02A800F01FFE9DF81D
:10153800113000939DF810309DF80F209DF80E1083
:101548000F48FFF7F7FB4FF47A70FFF7EFFDFFF74F
:101558004BFE00BF942E0008A82E0008000801408A
:101568006511000855110008F1150008F915000863
:10157800BC2E000820000020E82E0008082F0008D4
:10158800282F000808B50248FFF7D4FB08BD00BFA4
:10159800742D000808B50220FEF7EAFE00B908BD60
:1015A800FFF7F0FF0220FEF72FFF4FF4807000F0E6
:1015B800A0FDF4E710B5044602210A48FFF746FBF0
:1015C8000028F9D021460748FFF70EFB01210548FE
:1015D800FFF73CFB0028F9D00248FFF71FFBC0B219
:1015E80010BD00BF0030014008B5FFF7E3FF08BD9C
:1015F80008B5FF20FFF7DEFF08BD000030B583B057
:101608000446164DEB6898476B6998476B6A6BB14F
:10161800AB6A5BB1220C8DF80420220A8DF80520F4
:101628008DF80640032101A898470BE00B4D2B6A63
:10163800C4F3074098472B6AC4F3072098472B6ADE
:10164800E0B29847054CE36998470546A36998476F
:1016580023699847284603B030BD00BF2C000020FE
:1016680070B582B004460E46164DEB6898476B6914
:10167800984744F00404AB6AA3B1220C8DF8042007
:10168800220A8DF805208DF806408DF807600421A0
:101698000DEB010098470B4CA369984723699847BD
:1016A80002B070BD2B6AC4F3074098472B6AC4F395
:1016B800072098472B6AE0B298472B6A304698472C
:1016C800E9E700BF2C000020F0B583B004460E46C1
:1016D80015461B4FFB6898477B6998477B6AC3B1DF
:1016E800BB6AB3B1220C8DF80420220A8DF80520BC
:1016F8008DF80640032101A89847114B5B6A2946DB
:10170800304698470E4CA36998472369984703B019
:10171800F0BD0B4F3B6AC4F3074098473B6AC4F3DC
:10172800072098473B6AE0B298470024AC42E9D2C8
:10173800034BDB69984730550134A4B2F6E700BF84
:101748002C000020F0B583B004460E4615461A4F0B
:10175800FB6898477B69984744F00404BB6AB3B1B7
:10176800220C8DF80420220A8DF805208DF80640F9
:10177800032101A89847104B9B6A29463046984791
:101788000D4CA36998472369984703B0F0BD3B6A9D
:10179800C4F3074098473B6AC4F3072098473B6A5D
:1017A800E0B298470024AC42EAD2034B1B6A305D92
:1017B80098470134A4B2F6E72C0000202DE9F04147
:1017C800074600250DE03046FFF718FF85B22D02C9
:1017D800ADB24046FFF712FF80B20544ADB2A54254
:1017E80018D04FEA870808F101084FEAC80808F539
:1017F80000563046FFF702FF84B22402A4B208F56F
:1018080004584046FFF7FAFE80B20444A4B2002C04
:10181800E5D0D8E72846BDE8F0812DE9F041074634
:1018280000250DE03046FFF7E9FE85B22D02ADB286
:101838004046FFF7E3FE80B20544ADB2A54218D09A
:101848004FEA870808F101084FEAC80808F5185652
:101858003046FFF7D3FE84B22402A4B208F51C5820
:101868004046FFF7CBFE80B20444A4B2002CE5D07A
:10187800D8E72846BDE8F08102B970472DE9F8435A
:1018880015460F46840004F101094FEAC90909F514
:1018980010584046FFF7B2FE86B23602B6B209F5D6
:1018A80014594846FFF7AAFE80B20644B6B2A01CF7
:1018B800C0002A46394600EB0620FFF743FF3544AF
:1018C800ADB2290A4046FFF7CBFEE9B24846FFF71A
:1018D800C7FEBDE8F88302B970472DE9F8431546FD
:1018E8000F46840004F101094FEAC90909F5205897
:1018F8004046FFF783FE86B23602B6B209F5245990
:101908004846FFF77BFE80B20644B6B2E01CC00032
:101918002A46394600EB0620FFF7D6FE3544ADB21D
:10192800290A4046FFF79CFEE9B24846FFF798FEB1
:10193800BDE8F883082802D94FF0FF30704770B52A
:10194800064684000134E40004F580751021284619
:10195800FFF786FE2846FFF751FE0028FAD11F211F
:1019680004F50070FFF77CFE0123B340DB431BB294
:101978000A490A881A400A80094A11880B401380CC
:101988000023084A22F81630074A935504F5407098
:10199800FFF734FE0028F9D1012070BD5001002066
:1019A800520100205C01002054010020082800F2A8
:1019B80094802DE9F04182B005460E4690461F46B8
:1019C800012963D04BB2002B00F08A80042900F271
:1019D8008A8017F0040F40F089801FB1012E62D071
:1019E800022E66D02846FFF7A5FFAC000134E400BC
:1019F80027F00F0149B23143C9B22046FFF730FE44
:101A0800B8F1000F0AD13C4AB2F8008008F101038E
:101A18009BB213804FF6F072934259D04FEA1821C7
:101A280004F58060FFF71CFE5FFA88F104F5A060FA
:101A3800FFF716FE04F5807601213046FFF710FE09
:101A48003046FFF7DBFD0028FAD10122AA40D24335
:101A580012B22A490B8813401BB207F00107AF40A6
:101A68001F430F80264B19880A401A800023254AF5
:101A780022F81530244A535504F54070FFF7BEFD8F
:101A88000028F9D068B202B0BDE8F08104220DEB5D
:101A980002014FF47060FFF717FE019B002B98D1ED
:101AA8006FF00200EFE717F0210F9BD16FF00500F0
:101AB800E9E717F0200F02D017F0800F19D017F0C0
:101AC800100F8FD017F0800F8CD16FF00500DAE778
:101AD800094B4FF440421A80A0E74FF0FF3070479F
:101AE8006FF00400CFE76FF00400CCE76FF005005B
:101AF800C9E76FF00500C6E7280000205001002064
:101B0800520100205C0100205401002008282AD836
:101B180070B5054684000134E4002046FFF76EFDE9
:101B280000F00F00012821D104F540763046FFF778
:101B380065FD13281DD104F5807402212046FFF7A6
:101B48008FFD2046FFF75AFD0028FAD13046FFF7EF
:101B580055FD142801D1012070BD2846FFF7EAFE83
:101B68006FF00300F8E74FF0FF3070476FF00400A4
:101B7800F2E76FF00200EFE7082838D870B506469C
:101B880084000134E4002046FFF738FD00F00F0020
:101B980001282FD104F5807508212846FFF760FD3C
:101BA8002846FFF72BFD0028FAD1012303FA06F295
:101BB80013490B8823EA02030B80124B1B8833411D
:101BC80013F0010F19D104F54070FFF717FD60B14C
:101BD80004F50070FFF712FD10F0080FF3D030463F
:101BE800FFF7A8FE6FF00C0008E0012006E04FF0B8
:101BF800FF3070476FF0040000E0002070BD00BFA8
:101C08005201002050010020082800F283802DE9AD
:101C1800F04714468A460646814687000137FF008A
:101C28003846FFF7EBFC00F00F00012875D1002CB7
:101C380076D007F540784046FFF7E0FC172801D03A
:101C48001C2870D1394B1B88334113F0010F19D070
:101C580007F500752846FFF7D1FC10F0100F05D1E5
:101C680010F0080F19D10020BDE8F0871021284690
:101C7800FFF7F6FC012303FA06F22C490B8823EA46
:101C880002030B8007F5F850FFF7B8FC85B2AD02E8
:101C9800ADB2AC420FD825460DE03046FFF74AFEFC
:101CA8006FF00C00E0E73046FFF744FE6FF00600E7
:101CB800DAE7AC4215D23046FFF780FD04464046CD
:101CC800FFF79CFC172801D01C28ECD1184B1B8867
:101CD80043FA09F313F0010FEBD0AC42E9D200202C
:101CE800C2E72A4651463046FFF7C6FD07F580771A
:101CF80020213846FFF7B4FC3846FFF77FFC002860
:101D0800FAD1012303FA06F6084B1A8816431E80F7
:101D18002846A9E74FF0FF3070476FF00400A3E7AB
:101D28006FF00D00A0E76FF006009DE7520100205C
:101D380050010020082864D82DE9F0471446894648
:101D48000646074685000135ED002846FFF756FC94
:101D580000F00F00012857D1002C58D005F5F0509D
:101D6800FFF74CFC1FFA80F84FEA88281FFA88F81A
:101D780044450ED8A0460CE03046FFF7DBFD6FF077
:101D880006003CE03046FFF7D5FD6FF0060036E070
:101D98000CBB3046FFF741FD044605F54070FFF7E0
:101DA8002DFC17280DD01C28ECD1A4B93046FFF71C
:101DB80005FD824605F5F850FFF720FCBAEB802FA9
:101DC800DAD0144B1B883B4113F0010FE0D0002CF4
:101DD800DED1002013E0444500D34446224649465C
:101DE8003046FFF778FD05F5807540212846FFF756
:101DF80037FC2846FFF702FC0028FAD12046BDE848
:101E0800F0874FF0FF3070476FF00400F7E76FF08E
:101E18000D00F4E750010020082800F2A38070B5F7
:101E2800154604460C2900F2A080DFE801F00711EE
:101E38001B2538439E56676C717B8F0080000130EC
:101E4800C000FFF7DBFB00F0F0002870012070BD38
:101E580080000130C00000F5B050FFF7CFFB2870BC
:101E68000120F4E780000130C00000F5A850FFF71A
:101E7800C5FB28700120EAE784000134E40004F57A
:101E88009050FFF7BBFB86B23602B6B204F5985005
:101E9800FFF7B4FB80B206442E800120D7E780000C
:101EA8000130C0000422294600F54060FFF70CFC11
:101EB8000120CCE784000134E40004F58050FFF7EA
:101EC8009DFB86B23602B6B204F58850FFF796FB42
:101ED80080B206442E800120B9E784000134E40072
:101EE8002046FFF78BFB00F00F00012840D104F5D6
:101EF8003C50FFF783FB28800120A8E7FFF75EFC32
:101F080028800120A3E7FFF788FC288001209EE7AE
:101F180080000130C00000F54070FFF76FFB2870AB
:101F2800012094E780000130C000FFF767FB10F044
:101F3800010F05D1114B33F814302B80012086E7AF
:101F48002046FFF76AFC2880012080E780000130E6
:101F5800C000FFF753FB01280DD0094B1B5D2B7008
:101F6800012074E74FF0FF3070476FF001006EE713
:101F78006FF004006BE76FF0040068E75C01002075
:101F880054010020704770477047704700787047C9
:101F980001707047002070477047000020B119B1E8
:101FA800044A506191617047024B034A5A61034ADF
:101FB8009A6170472C000020911F0008931F0008A9
:101FC800084B1B8813F4007FFAD020B119B1054BD8
:101FD800D86119627047034B034ADA61034A1A62EF
:101FE800704700BF2C0000209D1F0008A11F00089B
:101FF80000B587B0062201A94FF41060FFF764FB13
:10200800042205A94FF48070FFF75EFB042204A99F
:102018004FF4A060FFF758FB042203A94FF4706047
:10202800FFF752FB80210020FFF71AFB0020FFF783
:10203800E5FA062201A94FF41060FFF783FB04229A
:1020480005A94FF48070FFF77DFB042204A94FF423
:10205800A060FFF777FB042203A94FF47060FFF735
:1020680071FB07B05DF804FB70B505460E46FFF737
:10207800BFFFCDB100221346072B07DCE95C0A44F9
:1020880052B2102A2FDC01335BB2F5E7002409E0D5
:10209800A0000130C000295D00F5F850FFF7E0FA14
:1020A800013464B2072CF3DD5EB100221346072B1E
:1020B80009DCF15C0A4452B2102A17DC01335BB226
:1020C800F5E700200EE0002409E0A0000130C00080
:1020D800315D00F5F050FFF7C3FA013464B2072C04
:1020E800F3DD002070BD4FF0FF30FBE74FF0FF300D
:1020F800F8E710B5040A00F0F0014FF4A850FFF714
:10210800AFFA21464FF4B850FFF7AAFA10BD000005
:1021180010B50446062201464FF41060FFF712FB83
:10212800042204F10E014FF48070FFF70BFB042228
:1021380004F10A014FF4A060FFF704FB0422A11D7B
:102148004FF47060FFF7FEFAA27C064B1A70E27C2F
:102158005A70227D9A70627DDA70A27D024B1A70E5
:1021680010BD00BF700100206C01002010B50446AE
:10217800062201464FF41060FFF7A6FA042204F184
:102188000E014FF48070FFF79FFA042204F10A0150
:102198004FF4A060FFF798FA0422A11D4FF4706075
:1021A800FFF792FA064B1A78A2745A78E2749A7872
:1021B8002275DB786375034B1B78A37510BD00BFD0
:1021C800700100206C010020014B1868704700BFA7
:1021D800580000200A44914200F1FF3300D17047B3
:1021E80010B511F8014B914203F8014FF9D110BD18
:1021F80003460244934200D1704703F8011BF9E7F4
:1022080038B50546002943D051F8043C0C1F002B73
:10221800B8BFE41800F026F91E4A1368104633B90F
:10222800636014602846BDE8384000F021B9A34235
:102238000BD921686218934201BF1A685B6852186B
:10224800226063600460EDE713465A680AB1A2424F
:10225800FAD919685818A0420BD1206801445818B7
:1022680082421960DED110685268014419605A60D0
:10227800D8E702D90C232B60D4E7206821188A42BA
:1022880001BF116852680918216062605C60C9E783
:1022980038BD00BF74010020F8B5CD1C25F003053A
:1022A80008350C2D38BF0C25002D064601DBA94248
:1022B80003D90C2333600020F8BD00F0D3F821497E
:1022C8000A6814469CB9204F3B6823B9214630461A
:1022D80000F03CF838602946304600F037F8431CD7
:1022E80023D10C233046336000F0C2F8E3E72368BB
:1022F8005B1B17D40B2B03D923601C44256004E017
:102308006368A2420CBF0B605360304600F0B0F81F
:1023180004F10B00231D20F00700C21ACCD01B1AB1
:10232800A350C9E722466468CCE7C41C24F0030420
:10233800A042E3D0211A304600F008F80130DDD180
:10234800CFE700BF740100207801002038B50023D2
:10235800054C054608462360FEF7B8FC431C02D12D
:10236800236803B12B6038BD7C0100200EB46FF0E8
:10237800004100B59CB01DAB0290069007910491F6
:102388000848094953F8042B0591006802A90193EC
:1023980000F0D0F80022029B1A701CB05DF804EB24
:1023A80003B07047580000200802FFFF034613F8E7
:1023B800012B002AFBD1181A01387047F0B50C78A8
:1023C80064B103461A7818465E1C0AB9104605E03F
:1023D800944208D10D4615F8012F02B9F0BD13F843
:1023E800017F9742F7D03346ECE730B5141E054617
:1023F8009BB0184605DA8B234FF0FF302B601BB0DB
:1024080030BD4FF40273ADF80C300CBF234604F115
:10241800FF33029305934FF6FF7300910491ADF8D3
:102428000E3002461E9B6946284600F083F8431C7E
:10243800BCBF8B232B60002CE1D00022009B1A70BC
:10244800DDE7000007B5009313460A460146034836
:102458000068FFF7CAFF03B05DF804FB58000020CE
:10246800704770470148FFF7FBBF00BF9D01002080
:102478000148FFF7F6BF00BF9D0100202DE9F04796
:102488008E6882469E420C469146984638D8B1F8E6
:102498000CC01CF4906F31D062692568096902EBA1
:1024A80042026F1A02EBD272013355103B449D422F
:1024B80038BF1D461CF4806F30D02946FFF7ECFE6C
:1024C800064650B90C234FF0FF30CAF80030A389F4
:1024D80043F04003A381BDE8F0873A462169FFF73E
:1024E80079FEA38923F4906343F08003A3812661D6
:1024F8003E44266046466561ED1BA560464500D909
:10250800464632464946206800F0A6FAA3680020ED
:102518009B1BA36023681E442660DCE72A4600F064
:10252800B5FA06460028E2D121695046FFF768FE51
:10253800C8E700002DE9F04F1E468B899DB01B06A9
:1025480007460D4614460ED50B6963B94021FFF7BF
:10255800A3FE2860286120B90C233B604FF0FF30B0
:10256800C9E040236B610023099320238DF82930AB
:1025780030234FF0010ADFF898918DF82A3003963E
:1025880023461E4613F8012B0AB1252AF9D1B6EBCA
:10259800040B0BD05B46224629463846FFF76EFFF0
:1025A800013000F0A380099B5B4409933378002B2A
:1025B80000F09C8000234FF0FF32CDE9052301365F
:1025C800049307938DF853301A933446052214F870
:1025D800011B4F4800F032FA049BC0B9D90644BF2A
:1025E80020228DF853201A0744BF2B228DF8532040
:1025F80032782A2A13D0344600200A26079A214620
:1026080011F8013B303B092B4BD970B914E0A0EB12
:1026180009000AFA00F0184304902646D5E7039A01
:10262800111D12680391002A01DB079204E052424F
:1026380043F002030792049323782E2B0CD163787E
:102648002A2B33D1039B02341A1D1B680392002BDB
:10265800B8BF4FF0FF3305932E4E03222178304642
:1026680000F0ECF938B14023801B03FA00F0049B1A
:1026780001340343049314F8011B062226488DF8FD
:10268800281000F0DBF9002838D0244B13BB039B3B
:10269800073323F0070308330393099B4344099343
:1026A8006EE706FB023201200C46A8E700230A2643
:1026B800194601340593204610F8012B303A092AAF
:1026C80003D9002BC8D00591C6E706FB01210123D9
:1026D8000446F0E703AB00932A46114B04A9384699
:1026E800AFF30080B0F1FF3F8046D6D1AB895B06DF
:1026F8003FF534AF09981DB0BDE8F08F03AB0093E8
:102708002A46074B04A9384600F082F8EAE700BFDA
:10271800AC2F0008B22F0008B62F000800000000F8
:10272800852400082DE9F04791461F468A680B6901
:1027380006469342B8BF1346C9F8003091F84320C3
:102748000C46DDF8208012B10133C9F80030236847
:10275800990642BFD9F800300233C9F8003025681D
:1027680015F0060507D104F1190AE368D9F8002025
:102778009B1AAB4229DC94F843302268003318BF17
:10278800012392062ED404F1430239463046C0474D
:10279800013021D02368E56803F00603042B18BF35
:1027A8000025D9F800204FF0000908BFAD1AA3682A
:1027B800226908BF25EAE5759342C4BF9B1AED1844
:1027C8001A344D451AD1002008E0012352463946F3
:1027D8003046C047013003D14FF0FF30BDE8F087E5
:1027E8000135C2E73020E11881F843005A1C94F8FB
:1027F80045102244023382F84310C4E701232246DD
:1028080039463046C0470130E6D009F10109D8E71A
:102818002DE9F04306460C4601F14300097E85B0D8
:102828006E29984617460C9B00F0BB8024D8632974
:1028380039D00AD8002900F0C480582900F09280C5
:1028480004F1420584F8421035E0642901D0692971
:10285800F6D125681A6815F0800F02F104012CD012
:1028680012681960002A03DA2D23524284F8433093
:10287800DFF8C0C10A233FE0732900F0A68008D81A
:102888006F2921D07029DBD1226842F02002226012
:1028980003E0752918D07829D2D17822DFF898C1B9
:1028A80084F8452062E01A6804F14205111D196098
:1028B800136884F84230012394E0126815F0400F41
:1028C800196018BF12B2CDE7D4F800C01A681CF01E
:1028D800800F02F104051D6001D0126803E01CF0AE
:1028E800400FFAD012886F290CBF08230A23DFF89B
:1028F80044C1002184F843106568002DA8BF2168F1
:10290800A560A4BF21F0040121600AB9002D46D0BA
:102918000546B2FBF3F103FB112E1CF80EE09342BF
:1029280005F801ED39D9082B0BD12368DA0708D54A
:10293800236962689A42DEBF302305F8013C05F13D
:10294800FF35401B2061CDF800803B4603AA214695
:102958003046FFF7E7FE013049D14FF0FF3005B0B0
:10296800BDE8F083DFF8CCC084F845101D68216805
:1029780055F8042B1D600D060BD5CD0744BF41F05B
:10298800200121601AB9236823F020032360102353
:10299800AFE74B0648BF92B2EFE70A46B9E70546EC
:1029A800C1E71A68D4F800C0151D61691CF0800FD2
:1029B8001D60136801D0196003E01CF0400FFAD0C5
:1029C8001980002305462361BDE71A68111D1960A7
:1029D800156800216268284600F030F808B1401BED
:1029E800606063682361002384F84330ABE72369A0
:1029F8002A4639463046C0470130AED023689B0787
:102A080013D4E068039B9842B8BF1846A7E7012390
:102A18004A4639463046C04701309ED00135E36802
:102A2800039A9B1AAB42F2DCEBE7002504F1190983
:102A3800F5E700BFBD2F0008CE2F000810B5C9B2BA
:102A480002449042034601D1002303E01C78013080
:102A58008C42F6D1184610BD884210B501EB02032E
:102A680002D983421C4607D8421E994208D011F861
:102A7800014B02F8014FF8E783189A1A9A4200D1DD
:102A880010BD14F8011D03F8011DF7E7F8B5074656
:102A980014460E4621B91146BDE8F840FFF7FCBBC5
:102AA80022B9FFF7ADFB25462846F8BD00F014F81B
:102AB800A0420FD221463846FFF7EEFB0546002814
:102AC800F2D031462246FFF785FB31463846FFF7FC
:102AD80097FBE9E73546E7E751F8043C181F002B58
:102AE800BCBF0B58C01870472E2E2F7379737465AE
:102AF8006D2F7372632F73746D333266312D737457
:102B0800647065726970682F73746D333266313022
:102B1800785F657874692E63000000002E2E2F738D
:102B2800797374656D2F7372632F73746D333266A6
:102B3800312D7374647065726970682F73746D33A6
:102B480032663130785F666C6173682E630000000E
:102B58002E2E2F73797374656D2F7372632F7374B0
:102B68006D333266312D7374647065726970682FC5
:102B780073746D3332663130785F6770696F2E63B6
:102B8800000000002E2E2F73797374656D2F7372F9
:102B9800632F73746D333266312D7374647065728C
:102BA8006970682F73746D3332663130785F726381
:102BB800632E63002E2E2F73797374656D2F7372D5
:102BC800632F73746D333266312D7374647065725C
:102BD8006970682F73746D3332663130785F737043
:102BE800692E630061626F727428292C20657869E8
:102BF80074696E672E2E2E006173736572745F7030
:102C08006172616D2829206661696C65643A206685
:102C1800696C6520222573222C206C696E6520253D
:102C2800640A0000537461636B206672616D653AD3
:102C38000A000000205230203D2020253038580A54
:102C480000000000205231203D2020253038580A4D
:102C580000000000205232203D2020253038580A3C
:102C680000000000205233203D2020253038580A2B
:102C78000000000020523132203D20253038580A0B
:102C880000000000204C52203D2020253038580AF2
:102C980000000000205043203D2020253038580AED
:102CA8000000000020505352203D20253038580A9B
:102CB800000000004653522F4641523A0A000000D5
:102CC8002043465352203D2020253038580A000022
:102CD8002048465352203D2020253038580A00000D
:102CE8002044465352203D2020253038580A000001
:102CF8002041465352203D2020253038580A0000F4
:102D0800204D4D464152203D20253038580A0000BC
:102D18002042464152203D2020253038580A0000E4
:102D28004D6973630A000000204C522F4558435FD9
:102D380052455455524E3D20253038580A0000005F
:102D48005B486172644661756C745D0A000000003E
:102D58005B4275734661756C745D0A005B557361FF
:102D680067654661756C745D0A0000006865726588
:102D78000A000000436C69656E7420636F6E6E65AF
:102D8800637465643A2025642E25642E25642E25F7
:102D9800643A25640A00000057353530303E4869EA
:102DA8002100000053656E742077656C636F6D6554
:102DB800206D6573736167652C206E6F772077616E
:102DC8006974696E6720666F72206D6573736167D9
:102DD80065732E2E2E0A0000496E636F6D696E674B
:102DE8003E25730A000000007265713A0000000079
:102DF80057353530303E25730000000057353530E3
:102E0800303E7365727665725F25640025730A002B
:102E180044617461207472616E73666572206572B4
:102E2800726F720A00000000436C69656E7420635B
:102E38006F6E6E656374696F6E206572726F722053
:102E48006F7220636C69656E7420636C6F73656460
:102E58002074686520636F6E6E656374696F6E0AAF
:102E680000000000736F636B5F6C697374656E209C
:102E78006572726F72200A0043616E6E6F74206F04
:102E880070656E20736F636B65740A00496E6974B0
:102E980069616C697A696E67205350490A000000BD
:102EA80053504920496E697469616C697A65640A8E
:102EB8000000000046756E6374696F6E732072655A
:102EC80067697374657265642C20696E69746961D9
:102ED8006C697A696E672057353530300A00000012
:102EE800573535303020686173206265656E20691A
:102EF8006E697469616C697A65642E0A0000000065
:102F0800547279696E6720746F206F627461696E9C
:102F180020495020616464726573732E2E2E0A0056
:102F280041737369676E6564204950204164647217
:102F38006573733A2025642E25642E25642E256436
:102F48000A0000000000000000000000000000006F
:102F58000000000000000000000000000000000069
:102F68000000000000000000000000000000000059
:102F78000000000000000000000000000000000049
:102F88000000000000000000000000000000000039
:102F98000000000000000000000000000000000029
:102FA80000000000232D302B2000686C4C00656663
:102FB8006745464700303132333435363738394182
:102FC8004243444546003031323334353637383998
:072FD800616263646566009D
:102FE00078563412C80000200000000000000000E5
:102FF00000000000010203040607080900A24A04B9
:10300000020202020202020200C0FFFF0102573563
:1030100035303000000000008D1F00088F1F0008B1
:10302000911F0008931F0008951F0008991F0008B2
:1030300000000000000000005C0000200000000014
:103040006C2F00088C2F00084C2F00080000000097
:103050000000000000000000000000000000000070
:103060000000000000000000000000000000000060
:103070000000000000000000000000000000000050
:103080000000000000000000000000000000000040
:10309000000000000000000000000000325476989C
:040000050800010DE1
:00000001FF
